{
  "contractName": "StateMachine",
  "abi": [
    {
      "inputs": [],
      "payable": false,
      "stateMutability": "nonpayable",
      "type": "constructor",
      "signature": "constructor"
    },
    {
      "constant": true,
      "inputs": [],
      "name": "getState",
      "outputs": [
        {
          "name": "",
          "type": "uint8"
        }
      ],
      "payable": false,
      "stateMutability": "view",
      "type": "function",
      "signature": "0x1865c57d"
    },
    {
      "constant": false,
      "inputs": [],
      "name": "end",
      "outputs": [
        {
          "name": "",
          "type": "bool"
        }
      ],
      "payable": false,
      "stateMutability": "nonpayable",
      "type": "function",
      "signature": "0xefbe1c1c"
    },
    {
      "constant": false,
      "inputs": [],
      "name": "init",
      "outputs": [
        {
          "name": "",
          "type": "bool"
        }
      ],
      "payable": false,
      "stateMutability": "nonpayable",
      "type": "function",
      "signature": "0xe1c7392a"
    },
    {
      "constant": false,
      "inputs": [],
      "name": "play",
      "outputs": [
        {
          "name": "",
          "type": "bool"
        }
      ],
      "payable": false,
      "stateMutability": "nonpayable",
      "type": "function",
      "signature": "0x93e84cd9"
    },
    {
      "constant": false,
      "inputs": [],
      "name": "stop",
      "outputs": [
        {
          "name": "",
          "type": "bool"
        }
      ],
      "payable": false,
      "stateMutability": "nonpayable",
      "type": "function",
      "signature": "0x07da68f5"
    }
  ],
  "bytecode": "0x608060405234801561001057600080fd5b5060008060006101000a81548160ff0219169083600681111561002f57fe5b0217905550610715806100436000396000f3fe60806040526004361061006d576000357c0100000000000000000000000000000000000000000000000000000000900463ffffffff16806307da68f5146100725780631865c57d146100a157806393e84cd9146100da578063e1c7392a14610109578063efbe1c1c14610138575b600080fd5b34801561007e57600080fd5b50610087610167565b604051808215151515815260200191505060405180910390f35b3480156100ad57600080fd5b506100b66102af565b604051808260068111156100c657fe5b60ff16815260200191505060405180910390f35b3480156100e657600080fd5b506100ef6102c5565b604051808215151515815260200191505060405180910390f35b34801561011557600080fd5b5061011e610412565b604051808215151515815260200191505060405180910390f35b34801561014457600080fd5b5061014d6104be565b604051808215151515815260200191505060405180910390f35b600060068081111561017557fe5b6000809054906101000a900460ff16600681111561018f57fe5b14151515610205576040517f08c379a00000000000000000000000000000000000000000000000000000000081526004018080602001828103825260158152602001807f6d616368696e65206973207475726e6564206f6666000000000000000000000081525060200191505060405180910390fd5b6002600681111561021257fe5b6000809054906101000a900460ff16600681111561022c57fe5b1415156102a1576040517f08c379a00000000000000000000000000000000000000000000000000000000081526004018080602001828103825260168152602001807f4d616368696e65206973206e6f7420706c6179696e670000000000000000000081525060200191505060405180910390fd5b6102ab600561062e565b5090565b60008060009054906101000a900460ff16905090565b6000600260068111156102d457fe5b6000809054906101000a900460ff1660068111156102ee57fe5b14151515610364576040517f08c379a00000000000000000000000000000000000000000000000000000000081526004018080602001828103825260128152602001807f6d616368696e6520697320706c6179696e67000000000000000000000000000081525060200191505060405180910390fd5b60068081111561037057fe5b6000809054906101000a900460ff16600681111561038a57fe5b14151515610400576040517f08c379a000000000000000000000000000000000000000000000000000000000815260040180806020018281038252601d8152602001807f6d616368696e65206973206f66662c207475726e206f6e20666972737400000081525060200191505060405180910390fd5b61040a600261062e565b506001905090565b600060068081111561042057fe5b6000809054906101000a900460ff16600681111561043a57fe5b1415156104af576040517f08c379a00000000000000000000000000000000000000000000000000000000081526004018080602001828103825260128152602001807f6d616368696e652069732072756e6e696e67000000000000000000000000000081525060200191505060405180910390fd5b6104b9600061062e565b905090565b60006006808111156104cc57fe5b6000809054906101000a900460ff1660068111156104e657fe5b1415151561055c576040517f08c379a00000000000000000000000000000000000000000000000000000000081526004018080602001828103825260138152602001807f6d616368696e65206973207475726e206f66660000000000000000000000000081525060200191505060405180910390fd5b6002600681111561056957fe5b6000809054906101000a900460ff16600681111561058357fe5b1415151561061f576040517f08c379a00000000000000000000000000000000000000000000000000000000081526004018080602001828103825260288152602001807f6d616368696e6520697320706c6179696e672c2073746f70206265666f72652081526020017f7475726e206f666600000000000000000000000000000000000000000000000081525060400191505060405180910390fd5b610629600661062e565b905090565b600060068081111561063c57fe5b82600681111561064857fe5b111515156106be576040517f08c379a00000000000000000000000000000000000000000000000000000000081526004018080602001828103825260118152602001807f636f6469676f20696e636f72726563746f00000000000000000000000000000081525060200191505060405180910390fd5b816000806101000a81548160ff021916908360068111156106db57fe5b02179055506001905091905056fea165627a7a72305820e3049e6576a20371b5d3dac13f72835b5790a92faf3a84d199eecd9c323442650029",
  "source": "pragma solidity 0.5.0;\n\ncontract StateMachine {\n\nenum State {inited, loaded,  playing,  paused, unloaded, stoped, ended}\n\nState state;\n\nconstructor() public {\nstate = State.inited;\n}\n\nfunction _setState( State _state) private returns (bool)\n{\nrequire(uint(_state) <= uint(State.ended),'codigo incorrecto');\nstate = _state;\n\nreturn true;\n\n}\n\nfunction getState() view public returns(State){\n\nreturn state;\n\n\n}\n\nfunction end() public returns (bool) \n{\nrequire(state != State.ended,'machine is turn off');\nrequire(state != State.playing,'machine is playing, stop before turn off');\n\nreturn _setState(State.ended);\n\n\n}\n\nfunction init() public returns (bool)\n{\nrequire(state == State.ended,'machine is running');\nreturn _setState(State.inited);\n\n}\n\nfunction play() public returns (bool)\n{\nrequire(state != State.playing,'machine is playing');\nrequire( state != State.ended, 'machine is off, turn on first');\n_setState(State.playing);\nreturn true;\n}\n\nfunction stop() public returns(bool)\n\n{\nrequire(state != State.ended, 'machine is turned off');\nrequire( state == State.playing , 'Machine is not playing');\n\n_setState(State.stoped);\n\n}\n\n\n\n}\n",
  "sourcePath": "/root/state-machine/contracts/StateMachine.sol",
  "compiler": {
    "name": "solc",
    "version": "0.5.0+commit.1d4f565a.Emscripten.clang"
  },
  "schemaVersion": "3.0.1",
  "updatedAt": "2019-01-10T08:07:07.146Z",
  "devdoc": {
    "methods": {}
  },
  "userdoc": {
    "methods": {}
  }
}