{
  "contractName": "StateMachine",
  "abi": [
    {
      "inputs": [],
      "payable": false,
      "stateMutability": "nonpayable",
      "type": "constructor",
      "signature": "constructor"
    },
    {
      "constant": true,
      "inputs": [],
      "name": "getState",
      "outputs": [
        {
          "name": "",
          "type": "uint8"
        }
      ],
      "payable": false,
      "stateMutability": "view",
      "type": "function",
      "signature": "0x1865c57d"
    },
    {
      "constant": false,
      "inputs": [],
      "name": "end",
      "outputs": [],
      "payable": false,
      "stateMutability": "nonpayable",
      "type": "function",
      "signature": "0xefbe1c1c"
    },
    {
      "constant": false,
      "inputs": [],
      "name": "init",
      "outputs": [],
      "payable": false,
      "stateMutability": "nonpayable",
      "type": "function",
      "signature": "0xe1c7392a"
    },
    {
      "constant": false,
      "inputs": [],
      "name": "load",
      "outputs": [],
      "payable": false,
      "stateMutability": "nonpayable",
      "type": "function",
      "signature": "0x86d5c4be"
    },
    {
      "constant": false,
      "inputs": [],
      "name": "play",
      "outputs": [],
      "payable": false,
      "stateMutability": "nonpayable",
      "type": "function",
      "signature": "0x93e84cd9"
    },
    {
      "constant": false,
      "inputs": [],
      "name": "stop",
      "outputs": [],
      "payable": false,
      "stateMutability": "nonpayable",
      "type": "function",
      "signature": "0x07da68f5"
    },
    {
      "constant": false,
      "inputs": [],
      "name": "unload",
      "outputs": [],
      "payable": false,
      "stateMutability": "nonpayable",
      "type": "function",
      "signature": "0x925477b7"
    }
  ],
  "bytecode": "0x608060405234801561001057600080fd5b5060016000806101000a81548160ff0219169083600581111561002f57fe5b02179055506106d0806100436000396000f3fe608060405260043610610083576000357c0100000000000000000000000000000000000000000000000000000000900463ffffffff16806307da68f5146100885780631865c57d1461009f57806386d5c4be146100d8578063925477b7146100ef57806393e84cd914610106578063e1c7392a1461011d578063efbe1c1c14610134575b600080fd5b34801561009457600080fd5b5061009d61014b565b005b3480156100ab57600080fd5b506100b461015f565b604051808260058111156100c457fe5b60ff16815260200191505060405180910390f35b3480156100e457600080fd5b506100ed610175565b005b3480156100fb57600080fd5b506101046101a1565b005b34801561011257600080fd5b5061011b6101c5565b005b34801561012957600080fd5b506101326101e9565b005b34801561014057600080fd5b506101496101fd565b005b610153610229565b61015d60046102c7565b565b60008060009054906101000a900460ff16905090565b61017d6102ec565b61018561038b565b61018d61042a565b6101956104c9565b61019f60026102c7565b565b6101a96102ec565b6101b161042a565b6101b9610568565b6101c360056102c7565b565b6101cd6102ec565b6101d561042a565b6101dd610568565b6101e760036102c7565b565b6101f1610606565b6101fb60016102c7565b565b6102056102ec565b61020d61038b565b61021561042a565b61021d6104c9565b61022760006102c7565b565b6003600581111561023657fe5b6000809054906101000a900460ff16600581111561025057fe5b1415156102c5576040517f08c379a00000000000000000000000000000000000000000000000000000000081526004018080602001828103825260168152602001807f6d616368696e65206973206e6f7420706c6179696e670000000000000000000081525060200191505060405180910390fd5b565b806000806101000a81548160ff021916908360058111156102e457fe5b021790555050565b600060058111156102f957fe5b6000809054906101000a900460ff16600581111561031357fe5b14151515610389576040517f08c379a00000000000000000000000000000000000000000000000000000000081526004018080602001828103825260138152602001807f6d616368696e65206973207475726e206f66660000000000000000000000000081525060200191505060405180910390fd5b565b6002600581111561039857fe5b6000809054906101000a900460ff1660058111156103b257fe5b14151515610428576040517f08c379a00000000000000000000000000000000000000000000000000000000081526004018080602001828103825260118152602001807f6d616368696e65206973206c6f6164656400000000000000000000000000000081525060200191505060405180910390fd5b565b6003600581111561043757fe5b6000809054906101000a900460ff16600581111561045157fe5b141515156104c7576040517f08c379a00000000000000000000000000000000000000000000000000000000081526004018080602001828103825260128152602001807f6d616368696e6520697320706c6179696e67000000000000000000000000000081525060200191505060405180910390fd5b565b600460058111156104d657fe5b6000809054906101000a900460ff1660058111156104f057fe5b14151515610566576040517f08c379a00000000000000000000000000000000000000000000000000000000081526004018080602001828103825260118152602001807f4d616368696e652069732053746f70656400000000000000000000000000000081525060200191505060405180910390fd5b565b60058081111561057457fe5b6000809054906101000a900460ff16600581111561058e57fe5b14151515610604576040517f08c379a00000000000000000000000000000000000000000000000000000000081526004018080602001828103825260138152602001807f6d616368696e6520697320756e6c6f616465640000000000000000000000000081525060200191505060405180910390fd5b565b6000600581111561061357fe5b6000809054906101000a900460ff16600581111561062d57fe5b1415156106a2576040517f08c379a00000000000000000000000000000000000000000000000000000000081526004018080602001828103825260168152602001807f6d616368696e65c397206973207475726e6564206f6e0000000000000000000081525060200191505060405180910390fd5b56fea165627a7a723058207b93dd840b3e2925c837ea3f69f8486669618ccf1161765350cba30f1e52597b0029",
  "source": "pragma solidity 0.5.0;\n\ncontract StateMachine {\n\nenum State {off, on, loaded,  playing, stoped, unloaded}\n\nState state;\n\nconstructor() public\n{\n\tstate = State.on;\n}\n\nfunction _setState( State _state) private\n{\n\tstate = _state;\n}\n\nfunction getState() view public returns(State)\n{\n\treturn state;\n}\n\nfunction on() private view\n{\n\trequire(state != State.off, 'machine is turn off');\n}\n\nfunction off() private view\n{\n\trequire(state == State.off, 'machine× is turned on');\n}\n\nfunction noLoaded() private view\n{\n\trequire(state != State.loaded,'machine is loaded');\n}\n\nfunction noPlaying() private view\n{\n\trequire(state != State.playing, 'machine is playing');\n}\n\nfunction Playing() private view\n{\n\trequire(state == State.playing, 'machine is not playing');\n}\n\n function stoped() private view\n {\n   require(state == State.stoped, 'Machine is Not  Stoped');\n }\n\n function noStoped() private view\n {\n   require(state != State.stoped, 'Machine is Stoped');\n }\n\n function noUnloaded() private view\n{\n\trequire(state != State.unloaded, 'machine is unloaded');\n}\n\nfunction end() public \n{\n\ton();\n\tnoLoaded();\n\tnoPlaying();\n\tnoStoped();\n\t_setState(State.off);\n}\n\nfunction init() public\n{\n\toff();\n\t_setState(State.on);\n}\n\n function load() public\n {\n   on();\n   noLoaded();\n   noPlaying();\n   noStoped();\n   _setState(State.loaded);\n }\n \nfunction play() public\n{\n\ton();\n\tnoPlaying();\n\tnoUnloaded();\n\t_setState(State.playing);\n}\n\nfunction stop() public\n{\t\n\tPlaying();\n\t_setState(State.stoped);\n}\n\n function unload() public\n {\n   on();\n   noPlaying();\n   noUnloaded();\n   _setState(State.unloaded);\n }\n\n}\n",
  "sourcePath": "/root/state-machine/contracts/StateMachine.sol",
  "compiler": {
    "name": "solc",
    "version": "0.5.0+commit.1d4f565a.Emscripten.clang"
  },
  "schemaVersion": "3.0.1",
  "updatedAt": "2019-01-10T23:32:40.891Z",
  "devdoc": {
    "methods": {}
  },
  "userdoc": {
    "methods": {}
  }
}