{
  "contractName": "StateMachine",
  "abi": [
    {
      "inputs": [],
      "payable": false,
      "stateMutability": "nonpayable",
      "type": "constructor",
      "signature": "constructor"
    },
    {
      "constant": true,
      "inputs": [],
      "name": "getState",
      "outputs": [
        {
          "name": "",
          "type": "uint8"
        }
      ],
      "payable": false,
      "stateMutability": "view",
      "type": "function",
      "signature": "0x1865c57d"
    },
    {
      "constant": false,
      "inputs": [],
      "name": "end",
      "outputs": [],
      "payable": false,
      "stateMutability": "nonpayable",
      "type": "function",
      "signature": "0xefbe1c1c"
    },
    {
      "constant": false,
      "inputs": [],
      "name": "init",
      "outputs": [],
      "payable": false,
      "stateMutability": "nonpayable",
      "type": "function",
      "signature": "0xe1c7392a"
    },
    {
      "constant": false,
      "inputs": [],
      "name": "play",
      "outputs": [],
      "payable": false,
      "stateMutability": "nonpayable",
      "type": "function",
      "signature": "0x93e84cd9"
    },
    {
      "constant": false,
      "inputs": [],
      "name": "stop",
      "outputs": [],
      "payable": false,
      "stateMutability": "nonpayable",
      "type": "function",
      "signature": "0x07da68f5"
    }
  ],
  "bytecode": "0x608060405234801561001057600080fd5b5060016000806101000a81548160ff0219169083600581111561002f57fe5b02179055506104ee806100436000396000f3fe60806040526004361061006d576000357c0100000000000000000000000000000000000000000000000000000000900463ffffffff16806307da68f5146100725780631865c57d1461008957806393e84cd9146100c2578063e1c7392a146100d9578063efbe1c1c146100f0575b600080fd5b34801561007e57600080fd5b50610087610107565b005b34801561009557600080fd5b5061009e61011b565b604051808260058111156100ae57fe5b60ff16815260200191505060405180910390f35b3480156100ce57600080fd5b506100d7610131565b005b3480156100e557600080fd5b506100ee610155565b005b3480156100fc57600080fd5b50610105610169565b005b61010f610185565b6101196004610223565b565b60008060009054906101000a900460ff16905090565b610139610248565b6101416102e7565b610149610386565b6101536003610223565b565b61015d610424565b6101676001610223565b565b610171610248565b6101796102e7565b6101836000610223565b565b6003600581111561019257fe5b6000809054906101000a900460ff1660058111156101ac57fe5b141515610221576040517f08c379a00000000000000000000000000000000000000000000000000000000081526004018080602001828103825260168152602001807f6d616368696e65206973206e6f7420706c6179696e670000000000000000000081525060200191505060405180910390fd5b565b806000806101000a81548160ff0219169083600581111561024057fe5b021790555050565b6000600581111561025557fe5b6000809054906101000a900460ff16600581111561026f57fe5b141515156102e5576040517f08c379a00000000000000000000000000000000000000000000000000000000081526004018080602001828103825260138152602001807f6d616368696e65206973207475726e206f66660000000000000000000000000081525060200191505060405180910390fd5b565b600360058111156102f457fe5b6000809054906101000a900460ff16600581111561030e57fe5b14151515610384576040517f08c379a00000000000000000000000000000000000000000000000000000000081526004018080602001828103825260118152602001807f6d616368696e6520697320706c61696e6700000000000000000000000000000081525060200191505060405180910390fd5b565b60058081111561039257fe5b6000809054906101000a900460ff1660058111156103ac57fe5b14151515610422576040517f08c379a00000000000000000000000000000000000000000000000000000000081526004018080602001828103825260138152602001807f6d616368696e6520697320756e6c6f616465640000000000000000000000000081525060200191505060405180910390fd5b565b6000600581111561043157fe5b6000809054906101000a900460ff16600581111561044b57fe5b1415156104c0576040517f08c379a00000000000000000000000000000000000000000000000000000000081526004018080602001828103825260168152602001807f6d616368696e65c397206973207475726e6564206f6e0000000000000000000081525060200191505060405180910390fd5b56fea165627a7a723058207e57cd2ed5bd3c6d7c81ea1d07ac3dc1fcd53face7b51adf99762da9357bc1fe0029",
  "source": "pragma solidity 0.5.0;\n\ncontract StateMachine {\n\nenum State {off, on, loaded,  playing, stoped, unloaded}\n\nState state;\n\nconstructor() public\n{\n\tstate = State.on;\n}\n\nfunction _setState( State _state) private\n{\n\tstate = _state;\n}\n\nfunction getState() view public returns(State)\n{\n\treturn state;\n}\n\nfunction on() private view\n{\n\trequire(state != State.off, 'machine is turn off');\n}\n\nfunction off() private view\n{\n\trequire(state == State.off, 'machine× is turned on');\n}\n\nfunction noLoaded() private view\n{\n\trequire(state != State.loaded,'machine is loaded');\n}\n\nfunction noPlaying() private view\n{\n\trequire(state != State.playing, 'machine is plaing');\n}\n\nfunction Playing() private view\n{\n\trequire(state == State.playing, 'machine is not playing');\n}\nfunction noUnloaded() private view\n{\n\trequire(state != State.unloaded, 'machine is unloaded');\n}\n\nfunction end() public \n{\n\ton();\n\tnoPlaying();\n\t_setState(State.off);\n}\n\nfunction init() public\n{\n\toff();\n\t_setState(State.on);\n}\n\nfunction play() public\n{\n\ton();\n\tnoPlaying();\n\tnoUnloaded();\n\t_setState(State.playing);\n}\n\nfunction stop() public\n{\n\t\n\tPlaying();\n\t_setState(State.stoped);\n\n}\n\n\n}\n",
  "sourcePath": "/root/state-machine/contracts/StateMachine.sol",
  "compiler": {
    "name": "solc",
    "version": "0.5.0+commit.1d4f565a.Emscripten.clang"
  },
  "schemaVersion": "3.0.1",
  "updatedAt": "2019-01-10T11:47:24.350Z",
  "devdoc": {
    "methods": {}
  },
  "userdoc": {
    "methods": {}
  }
}