{
  "contractName": "StateMachine",
  "abi": [
    {
      "inputs": [],
      "payable": false,
      "stateMutability": "nonpayable",
      "type": "constructor"
    },
    {
      "constant": true,
      "inputs": [],
      "name": "getState",
      "outputs": [
        {
          "name": "",
          "type": "uint8"
        }
      ],
      "payable": false,
      "stateMutability": "view",
      "type": "function"
    },
    {
      "constant": true,
      "inputs": [],
      "name": "atUnloaded",
      "outputs": [],
      "payable": false,
      "stateMutability": "view",
      "type": "function"
    },
    {
      "constant": false,
      "inputs": [],
      "name": "end",
      "outputs": [],
      "payable": false,
      "stateMutability": "nonpayable",
      "type": "function"
    },
    {
      "constant": false,
      "inputs": [],
      "name": "init",
      "outputs": [],
      "payable": false,
      "stateMutability": "nonpayable",
      "type": "function"
    },
    {
      "constant": false,
      "inputs": [],
      "name": "load",
      "outputs": [],
      "payable": false,
      "stateMutability": "nonpayable",
      "type": "function"
    },
    {
      "constant": false,
      "inputs": [],
      "name": "play",
      "outputs": [],
      "payable": false,
      "stateMutability": "nonpayable",
      "type": "function"
    },
    {
      "constant": false,
      "inputs": [],
      "name": "stop",
      "outputs": [],
      "payable": false,
      "stateMutability": "nonpayable",
      "type": "function"
    },
    {
      "constant": false,
      "inputs": [],
      "name": "unload",
      "outputs": [],
      "payable": false,
      "stateMutability": "nonpayable",
      "type": "function"
    }
  ],
  "bytecode": "0x608060405234801561001057600080fd5b5060016000806101000a81548160ff0219169083600581111561002f57fe5b021790555061083e806100436000396000f3fe60806040526004361061008e576000357c0100000000000000000000000000000000000000000000000000000000900463ffffffff16806307da68f5146100935780631865c57d146100aa57806386d5c4be146100e3578063925477b7146100fa57806393e84cd9146101115780639861318b14610128578063e1c7392a1461013f578063efbe1c1c14610156575b600080fd5b34801561009f57600080fd5b506100a861016d565b005b3480156100b657600080fd5b506100bf610181565b604051808260058111156100cf57fe5b60ff16815260200191505060405180910390f35b3480156100ef57600080fd5b506100f8610197565b005b34801561010657600080fd5b5061010f6101c3565b005b34801561011d57600080fd5b506101266101ef565b005b34801561013457600080fd5b5061013d61021b565b005b34801561014b57600080fd5b506101546102b8565b005b34801561016257600080fd5b5061016b6102cc565b005b6101756102f8565b61017f6004610396565b565b60008060009054906101000a900460ff16905090565b61019f6103bb565b6101a761045a565b6101af6104f9565b6101b7610598565b6101c16002610396565b565b6101cb6103bb565b6101d3610637565b6101db6104f9565b6101e36106d6565b6101ed6005610396565b565b6101f76103bb565b6101ff610637565b6102076104f9565b61020f6106d6565b6102196003610396565b565b60058081111561022757fe5b6000809054906101000a900460ff16600581111561024157fe5b1415156102b6576040517f08c379a00000000000000000000000000000000000000000000000000000000081526004018080602001828103825260158152602001807f4d616368696e65206973206e6f74206c6f61646564000000000000000000000081525060200191505060405180910390fd5b565b6102c0610774565b6102ca6001610396565b565b6102d46103bb565b6102dc61045a565b6102e46104f9565b6102ec610598565b6102f66000610396565b565b6003600581111561030557fe5b6000809054906101000a900460ff16600581111561031f57fe5b141515610394576040517f08c379a00000000000000000000000000000000000000000000000000000000081526004018080602001828103825260168152602001807f6d616368696e65206973206e6f7420706c6179696e670000000000000000000081525060200191505060405180910390fd5b565b806000806101000a81548160ff021916908360058111156103b357fe5b021790555050565b600060058111156103c857fe5b6000809054906101000a900460ff1660058111156103e257fe5b14151515610458576040517f08c379a00000000000000000000000000000000000000000000000000000000081526004018080602001828103825260138152602001807f6d616368696e65206973207475726e206f66660000000000000000000000000081525060200191505060405180910390fd5b565b6002600581111561046757fe5b6000809054906101000a900460ff16600581111561048157fe5b141515156104f7576040517f08c379a00000000000000000000000000000000000000000000000000000000081526004018080602001828103825260118152602001807f6d616368696e65206973206c6f6164656400000000000000000000000000000081525060200191505060405180910390fd5b565b6003600581111561050657fe5b6000809054906101000a900460ff16600581111561052057fe5b14151515610596576040517f08c379a00000000000000000000000000000000000000000000000000000000081526004018080602001828103825260128152602001807f6d616368696e6520697320706c6179696e67000000000000000000000000000081525060200191505060405180910390fd5b565b600460058111156105a557fe5b6000809054906101000a900460ff1660058111156105bf57fe5b14151515610635576040517f08c379a00000000000000000000000000000000000000000000000000000000081526004018080602001828103825260118152602001807f4d616368696e652069732053746f70656400000000000000000000000000000081525060200191505060405180910390fd5b565b6001600581111561064457fe5b6000809054906101000a900460ff16600581111561065e57fe5b141515156106d4576040517f08c379a00000000000000000000000000000000000000000000000000000000081526004018080602001828103825260118152602001807f4d6163696e6520696e20617420496e697400000000000000000000000000000081525060200191505060405180910390fd5b565b6005808111156106e257fe5b6000809054906101000a900460ff1660058111156106fc57fe5b14151515610772576040517f08c379a00000000000000000000000000000000000000000000000000000000081526004018080602001828103825260138152602001807f6d616368696e6520697320756e6c6f616465640000000000000000000000000081525060200191505060405180910390fd5b565b6000600581111561078157fe5b6000809054906101000a900460ff16600581111561079b57fe5b141515610810576040517f08c379a00000000000000000000000000000000000000000000000000000000081526004018080602001828103825260168152602001807f6d616368696e65c397206973207475726e6564206f6e0000000000000000000081525060200191505060405180910390fd5b56fea165627a7a72305820d9b6186f0efa5cabc99d9e5294f9ee291b6c8c9b0bc1099adad702686843b09e0029",
  "source": "pragma solidity 0.5.0;\n\ncontract StateMachine {\n\nenum State {off, on, loaded,  playing, stoped, unloaded}\n\nState state;\n\nconstructor() public\n{\n\tstate = State.on;\n}\n\nfunction _setState( State _state) private\n{\n\tstate = _state;\n}\n\nfunction getState() view public returns(State)\n{\n\treturn state;\n}\n\nfunction notAtOff() private view\n{\n\trequire(state != State.off, 'machine is turn off');\n}\n\nfunction atOff() private view\n{\n\trequire(state == State.off, 'machine× is turned on');\n}\n\n function atOn() private view{\n   require(state == State.on, 'Machine is not at init');\n }\n\n function notAtOn() private view{\n   require(state != State.on, 'Macine in at Init');\n }\n\nfunction notAtLoaded() private view\n{\n\trequire(state != State.loaded,'machine is loaded');\n}\n\n function atLoaded() private view{\n   require( state == State.loaded, 'Machine is not loaded');\n }\n\nfunction notAtPlaying() private view\n{\n\trequire(state != State.playing, 'machine is playing');\n}\n\nfunction atPlaying() private view\n{\n\trequire(state == State.playing, 'machine is not playing');\n}\n\n function atStoped() private view\n {\n   require(state == State.stoped, 'Machine is Not  Stoped');\n }\n\n function notAtStoped() private view\n {\n   require(state != State.stoped, 'Machine is Stoped');\n }\n\n function notAtUnloaded() private view\n{\n\trequire(state != State.unloaded, 'machine is unloaded');\n}\n\n\n function atUnloaded() public view{\n   require(state == State.unloaded, 'Machine is not loaded');\n }\n \nfunction end() public \n{\n\tnotAtOff();\n\tnotAtLoaded();\n\tnotAtPlaying();\n\tnotAtStoped();\n\t_setState(State.off);\n}\n\nfunction init() public\n{\n\tatOff();\n\t_setState(State.on);\n}\n\n function load() public\n {\n   notAtOff();\n   notAtLoaded();\n   notAtPlaying();\n   notAtStoped();\n   _setState(State.loaded);\n }\n \nfunction play() public\n{\n\tnotAtOff();\n\tnotAtOn();\n\tnotAtPlaying();\n\tnotAtUnloaded();\n\t_setState(State.playing);\n}\n\nfunction stop() public\n{\t\n\tatPlaying();\n\t_setState(State.stoped);\n}\n\n function unload() public\n {\n   notAtOff();\n   notAtOn();\n   notAtPlaying();\n   notAtUnloaded();\n   _setState(State.unloaded);\n }\n\n}\n",
  "sourcePath": "/root/state-machine/contracts/StateMachine.sol",
  "compiler": {
    "name": "solc",
    "version": "0.5.0+commit.1d4f565a.Emscripten.clang"
  },
  "schemaVersion": "3.0.1",
  "updatedAt": "2019-01-17T17:01:35.461Z",
  "devdoc": {
    "methods": {}
  },
  "userdoc": {
    "methods": {}
  }
}